:020000041000EA
:1000000000B5324B212058609868022188439860DF
:10001000D860186158612E4B002199600221596106
:100020000121F02299502B49196001219960352056
:1000300000F044F80222904214D00621196600F024
:1000400034F8196E01211966002018661A6600F04E
:100050002CF8196E196E196E052000F02FF8012189
:100060000842F9D1002199601B49196000215960AB
:100070001A491B48016001219960EB211966A021F2
:10008000196600F012F800219960164914480160C1
:100090000121996001BC002800D000471248134993
:1000A000086003C880F30888084703B5996A0420EC
:1000B0000142FBD001200142F8D103BD02B5186610
:1000C0001866FFF7F2FF186E186E02BD00000240BE
:1000D000000000180000070000035F00212200005C
:1000E000F4000018222000A00001001008ED00E03C
:1000F00000000000000000000000000074B24E7A12
:1001000000200420F7010010C3010010C5010010F9
:10011000C1010010C1010010C1010010C101001097
:10012000C1010010C1010010C1010010C701001081
:10013000C1010010C101001025EF0210CB01001019
:10014000CD010010CD010010CD010010CD01001037
:10015000CD010010CD010010CD010010CD01001027
:10016000CD010010CD010010CD010010CD01001017
:10017000CD010010CD010010CD010010CD01001007
:10018000CD010010CD010010CD010010CD010010F7
:10019000CD010010CD010010CD010010CD010010E7
:1001A000CD010010CD010010CD010010CD010010D7
:1001B000CD010010CD010010CD010010CD010010C7
:1001C00000BE00BE00BE00BE00BE00BEEFF3058054
:1001D000103800BEF2EB88711C1C05108C1C051039
:1001E0003802001090A31AE71E481F49086006C88D
:1001F00081F3088810471D480068002801D019487D
:10020000F3E70DA40ECC002902D000F012F8F9E7B4
:100210001749184A002000E001C19142FCD116495B
:100220008847164988471649884700BEFDE701C937
:1002300001C29A42FBD370478C1C0510C0000020FD
:100240000C130020D82E051000000420000004200C
:10025000D82E05100010042000100420000000001B
:10026000704700000000000008ED00E0000000D032
:10027000101300207C410020A9C30310D1E8021014
:10028000A1C30310F8B5C0460448054B10B583421E
:1002900003D0044B002B00D0984710BD0C13002056
:1002A0000C1300200000000006480749091A8B10B3
:1002B000C90FC91810B5491003D0044B002B00D04A
:1002C000984710BD0C1300200C1300200000000004
:1002D00010B5074C2378002B09D1FFF7D5FF054B4C
:1002E000002B02D0044800E000BF0123237010BDA2
:1002F000981400200000000068E80310054B10B5BA
:10030000002B03D00449054800E000BFFFF7CCFFF5
:1003100010BDC046000000009C14002068E80310D7
:10032000030010B51000540C520892B2002904D0FA
:10033000C00702D40C481AF035FC944206D19C4206
:1003400010D0220009490A4819F05EFC9C4204D9E9
:1003500008490748E21A19F057FC9A4202D20649A6
:100360000348F1E710BDC04668E8031072E80310C7
:100370004C45041080E8031088E80310F0B5002510
:100380002F0087B00C9C0D9E029004910392059360
:100390000195059B9D4206D1019B029A934238D25A
:1003A00020481AF0FFFB029B9D4211D263889B05F7
:1003B000F6D4019B049A01330193AB00D058FF227D
:1003C00063881340012B1ED10EF0E2FC307013E065
:1003D000022321880022C900039819430AF02EF84D
:1003E00000280DD16388DB0504D522880E490F480B
:1003F00019F00AFC63683360013508340436C8E735
:1004000040680137DBE7022B01D10EF079FB306049
:10041000F2E7039B1B68DB08BB4201D90448C0E735
:1004200007B0F0BDA6E80310A1E803104C45041086
:10043000B0E8031070B515001E00040086B08200FD
:10044000AA1803A809F0CEFF0B9B290001930A9B71
:100450002000009303AA3300FFF790FF06B070BDA1
:1004600010B501481AF0C0FBBAE8031010B504003B
:100470000161880009F070FF606110BD10B50400D3
:10048000002902D0C06809F09BFF606909F098FF5D
:1004900010BD70B504000D0001290BDC01210269BB
:1004A0004942406992003AF0B7FF0023257063701B
:1004B000636070BD406809F04FFF6368E060A3604F
:1004C000F3E730B5030044780020844208D11D785A
:1004D00020005A68022D01D1D86880188918596007
:1004E00030BD002343700378012B03D84268436971
:1004F0008900CA50704742684B1E9B1849421940F8
:100500004160704770B50C001500FFF7DAFF041961
:10051000002803D170BD05702D0A0130A042FAD128
:10052000F8E710B50C000221FFF7CBFF002802D03E
:100530000470240A447010BDF8B50500012906DCDA
:1005400000290ADA0123023999430C0003E08B1ECB
:100550000024012BF6D8FE2601E00024F226B52166
:10056000090228003143FFF7DCFF271E07D1AE61E7
:10057000EC61F8BD28000649FFF7D3FF7F3F7F2FCE
:10058000F8D8044928003943FFF7CBFFEFE7C0460E
:10059000FFB0000080B0000070B5C5690400002DF8
:1005A00007D07F2D0DD8B021090220002943FFF785
:1005B000B8FFBD21A369090220001943FFF7B1FF6D
:1005C00070BD20000249FFF7ACFF7F3DE9E7C04660
:1005D0007FB00000F7B50B02FF270E000193140057
:1005E00013120A0280213B4013438901194305007D
:1005F000FFF797FF8021F300334389002800194358
:10060000FFF78FFFC021019B3C401C43890128005C
:100610002143FFF786FFF7BD70B50D0004211400DC
:10062000FFF74FFF002805D0057084702D0A240ABB
:100630004570C47070BD10B5DB0011431943FFF75E
:1006400070FF10BD10B5072A09D8D20007290BD8B2
:100650000A438C21C9011143FFF763FF10BD083A1B
:10066000D30040221A43F1E7083911438022EFE713
:100670004369890070B5CC58E02105004368090240
:10068000E41A043C23055B0D1943FFF74AFF2B785E
:100690000120022B08D180231B019C4204D3E40AD1
:1006A000E402E0184342584170BD70B505000020D7
:1006B00083421BD1FF266B699200D4586B680902F4
:1006C000E41A043C631033400B43D0210902280094
:1006D0001943FFF726FF2B780120022B06D1B442E5
:1006E00004D9B4430134FF346042604170BD4369B2
:1006F000F822890070B5CC58F02105004368120239
:10070000E41A043C63109BB21A4363025B0D0902B6
:100710001943FFF781FF2B780120022B08D180239A
:10072000DB039C4204D3A40DA405E01843425841C6
:1007300070BD0000F8B5476804000E001500BB0747
:1007400003D5BF210902FFF7ECFE90213602C90153
:1007500031432000FFF7E5FE20000649FFF7E1FEE8
:10076000A9B22000FFF7DDFE2000290CFFF7D9FE1B
:100770003800F8BD01E00000F7B506000C001700D6
:10078000072909D8FF2A07D80C02802114438901C0
:100790002143FFF7C6FEF7BDFB17FD185D4028009B
:1007A00036F028F90023019000939F4203D02800DF
:1007B00036F026F90090009A019B94466344172B6B
:1007C0001AD9154180212302EDB21D438901300061
:1007D0002943FFF7A6FE009BE10021439B01300067
:1007E0001943FFF79EFE002FD5DA230022003000C8
:1007F0000B49FFF720FFCEE780235B029D4205DA1D
:100800002A0021003000FFF7E5FEECE7002F00DAB8
:100810006D422A0021003000FFF78CFFBBE7C04685
:1008200040420000F7B514000A0006000D00224304
:10083000072A14D81A0008998A400092FF2A0FD874
:10084000A54203D022002900FFF7FCFEC021009B37
:100850002D021D43890129433000FFF762FEF7BDD9
:10086000EF00FF2B16D8A5421BD080212A0213438C
:1008700089011943FFF755FE089B30009901294370
:100880003943FFF74EFEC021A4013C432C434901EC
:100890002143E1E7A54204D02900009AFFF76CFF4D
:1008A000F1E7072401236C40B421A3400902194356
:1008B00030000193FFF735FE21003000009AFFF76A
:1008C0005BFFC021A4012C433C434901214330007C
:1008D000FFF727FEBC21019B09021943BCE700007A
:1008E00010B50378012B04D9FF2902D905481AF065
:1008F0007BF9C9B212020A43902109021143FFF7A2
:1009000010FE10BDDEE8031010B50378012B04D9EA
:10091000FF2A02D905481AF067F99823D2B20902D2
:1009200011431B021943FFF7FCFD10BDDEE8031065
:10093000A82310B5D2B2090211431B021943FFF7D5
:10094000F0FD10BD43699200D358426870B59B1A00
:1009500001221A430C3A0C000500FFF73BFEB221BE
:100960002800230022000902FFF765FE80222301F0
:100970001340793A14400349234328001943FFF7F1
:10098000D0FD70BD78440000F7B5089E04000D004E
:10099000114F1F2B0FD8114307290CD80121B85D27
:1009A000D2000143C9022A4311439B01200019438D
:1009B000FFF7B7FDF7BD29001F3B20000096FFF7AA
:1009C00031FF0123F821BA5DC9001343DB02EA00BD
:1009D00013432B43EAE7C0466B2B0410F7B50C001A
:1009E00005001100104FD6001F2B0ED822000A431D
:1009F000072A0AD8089A3443B95C9B01C9022143EB
:100A000028001943FFF78DFDF7BD089A1F3B0092A0
:100A100028000A00FFF706FFF821089BC900FB5CCD
:100A2000DB0223433343EBE76B2B0410436989005C
:100A300070B5CB58456804005E1B311F013311D0DF
:100A4000CB1C0FDA0220274ACB0ADB020540934277
:100A50002FD109054B0DE021090219432000FFF7B2
:100A600060FD70BD02231D4080231B01994204D309
:100A70001C4ACB0ADB0293421BD109054B0DE02136
:100A8000090219432000FFF74CFDBF212000090295
:100A9000FFF747FDBF2120000902FFF742FDBF21FC
:100AA00020000902FFF73DFD002DDAD0BF21090229
:100AB000D4E7002D0FD1063E92212000C901FFF797
:100AC00030FD20000849FFF72CFDB1B22000FFF7F0
:100AD00028FD3114C2E7BF2120000902FFF721FDE4
:100AE000083EE9E700F8FFFF8F440000F7B54369CF
:100AF00001929200D25847680400D31B0E00043BB9
:100B0000013212D0DA1C10DAFF2218001549904386
:100B100088420AD1D0215B101340360233430902C8
:100B200020001943FFF7FDFCF7BD02212000FFF76D
:100B3000C8FC019905002000FFF778FF002DF3D0D5
:100B4000802163683202043BDB1B5B0849004A409A
:100B5000DBB21343044A13439BB22B701B0A6B7026
:100B6000E2E7C04600FFFFFF00D0FFFF043A52104B
:100B70000902D2B20A43D02110B509021143FFF78E
:100B8000D0FC10BD04390B05E02110B55B0D090246
:100B90001943FFF7C6FC10BD37B5140002220B0045
:100BA0000092210005320500FFF7EEFE8F21E400E0
:100BB000C90128002143FFF7B4FC37BD73B50B0012
:100BC00069464C1D21007F261500013C35402570EB
:100BD000D209F9D1091B9847002809D080260100C5
:100BE000230001AD76421A78AB4202D11B1BC254DE
:100BF00073BD32430A7001330131F4E7030030B5AD
:100C000002687F2400201178C0010D0049B2254000
:100C1000013228430029F6DB1A6030BD07B5019088
:100C200001A8FFF7EBFF0EBD037801307F2BFBD847
:100C300070470000F0B593B00A93036809920493DB
:100C400083890700089343680C005A1C4260032202
:100C50001B7804201A4000920022012116008446CD
:100C60000292019278685BB2451C002B1DDB0622C4
:100C700000233F25944607930B937A680120511C6B
:100C80007960127811000140994007980843079055
:100C9000604658435110294081400B9852B2084396
:100CA0000B90002A1BDA0133E7E77D600378009D93
:100CB0009811084090400643604618409040054314
:100CC000D810084090400095019D05431800084049
:100CD00090400195029D013205430295C2E7002133
:100CE000BB68F981059304330393089B03989B0029
:100CF0001A0006933AF090FB009A089B9B1A019AFF
:100D00000D939D1A013D039BAD005D190423009ACC
:100D10003340A24200D370E0002B04D123009B4952
:100D20009B4818F071FF2B1F0C93009B99000A9BA6
:100D30005918009BE01A15F073FC009B28600C9D6D
:100D40000A9A059906989B0009189B189A4200D0A8
:100D500080E00823099A33400E931A430223002AA5
:100D600000D1F7E032001A400F9200220C921E428E
:100D700004D009980FF0C0FC0C9028600A9BA400D6
:100D80001C1900230A930A9B099A934266D10D9B72
:100D9000029A9D00039B049903325B199200881804
:100DA0001900029C002C00D099E003990C3A8C4663
:100DB0009B18069A62449A4200D999E07868FFF736
:100DC00033FF0026009B1190B34200D09AE0059BB0
:100DD0005D19019BA34200D098E00B9B7D68ED1844
:100DE0002E00079BEB180093009BB34200D0BFE09E
:100DF000079BED187D6013B0F0BD002B02D0654B52
:100E0000043D6B600823099A3340134317D1009BBC
:100E1000029A9A1AA24200D980E7029B009A1B19F3
:100E20009B1A049A9B00D3180699059A0C935018A4
:100E300022000C9B04330C93009B934201D12300AE
:100E40007EE70C9BD9688C4663469100494243502B
:100E50000132EEE701CA0439486077E77868FFF7A6
:100E6000E3FE002625681190009B019A9B18B3426F
:100E700005D80F9B002B26D14749EA0817E011A897
:100E8000FFF7BCFE0222049B40005B689B68C35ACC
:100E9000DB0013439D4214D1089B013B9B1B9340F5
:100EA000039AD3181A68002A04D03C49EA08384843
:100EB00018F0AAFE62681A600A9B083401330A938C
:100EC00061E70136D0E70C9B0122181D290009F0CB
:100ED000B5FA4368002BE8D163684360ECE70E681D
:100EE000002E01D106680E60013C0431043859E738
:100EF0000433191F0968002900D05CE7D21A284979
:100F00009210D4E7FFF790FE01365BE711A8FFF7D8
:100F100075FE049B2A685B6840009B68C65A002ADD
:100F200011D10E9B002B11D00223F1001943029B1B
:100F3000049804339B001858043009F07FFA002805
:100F400004D043682B600134043D42E73200154968
:100F50000F48ADE7019A002A02D0134819F022FE8B
:100F60001E4200D139E701980FF0C6FB286034E734
:100F7000089B5C1E33780136E41A039BA4001C19FD
:100F800020680EF085FD20602EE7C04672E8031051
:100F90004C4504105C560410FFE80310F4E80310FD
:100FA00005E903100FE9031017E9031010B50468F1
:100FB000E4684460040010348460FFF73BFE10BD19
:100FC00070B50568EC68AD682468002C01D0A400F9
:100FD00065590400103445608460FFF72BFE70BD36
:100FE00070B540283AD00FD80225A8433C280BD131
:100FF000012462291AD8482909D82300200042294F
:1010000028D02800482925D0344819F0F7FB0B00D8
:101010002000493BDBB29840314B184251D1622944
:1010200052D05129F0D12300082013E06439C9B20D
:101030000D29E9D823008B40190092235B00194247
:101040003FD1133BFF3B194238D1264D23000820E6
:101050002942D9D0002A00D0136070BD622919D866
:10106000482908D842292FD0482930D00123180018
:101070009942EFD0C8E7012308001C004938C0B2EC
:1010800084401748044226D162291ED05129BBD181
:1010900008231AE06439C9B20D29B5D801238B4061
:1010A000190092235B00194213D10E4B1942EFD164
:1010B0000223122418002142CCD1A5E723002800E6
:1010C000C8E723000420C5E701231800C2E7022374
:1010D000FBE70423F6E70423F7E7C04628E90310FB
:1010E000C90400000120000010B5512812D8412881
:1010F00003D8012823D000231DE042380F28FAD856
:101100003DF052FB1DF9F9F9F9F92225F9F925F914
:10111000F94447316238C3B20F2BECD80F28EAD814
:101120003DF042FB08E92DE928E90F37E9E937E905
:10113000E9E9E91A8B5601205B0018430BE08B5C50
:10114000F9E75200535EF6E75200535AF3E7920074
:10115000505811F019F810BDD2008A181068516863
:1011600010F07CFFF7E7D20089180868496810F092
:1011700090FFF0E7920050580FF094FFEBE7D20099
:1011800089180868496835F091FFF5E792005058D2
:10119000E1E79200505810F070FFDCE7F7B5070068
:1011A0000C000126002A02D1421E9B18023E00209C
:1011B0000021002C06D0002200259A56D40F0021D1
:1011C0006042A941002211E0040E00940C02019437
:1011D000040225001C780132A4462C0065462C43ED
:1011E0002000009D019C9B1925432900BA42EBD1A8
:1011F00003B0F0BDF0B585B0019203AA04000D0064
:101200001F001E68FFF7ECFE402C09D1039B019ADA
:10121000043CB61A5A1EB6185B421E40019B9E192A
:101220005A2133183E3C3B60A942894163425C41EC
:1012300049423300E2B2FFF7B1FF020006000F009F
:101240004F2D03D0532D03D113F0E4FB05B0F0BDB7
:10125000652D22D1810583B25004890DFF22C00E75
:101260001F2802D0021E09D07032D80BC007D20549
:101270001043490308430FF015FFE7E70029F4D0B6
:1012800080257024ED004800220081B2013C2842F4
:10129000F9D01748091889B2E7E7662DEBD0642D1D
:1012A00002D135F003FFE6E75A2D13D9802200233F
:1012B000D20592197B4130001100002B06D180230A
:1012C0001B06994202D210F0D8FEBFE7390010F099
:1012D000C5FEBBE7002906D18023DB05984202D278
:1012E00010F052FFB2E7390010F0D3FEAEE7C0466F
:1012F00000FCFFFF13B5040001931000002904D186
:10130000220001A93AF08EF813BD01AB1B19141984
:10131000A042F9D0013B197801700130F8E70000D4
:10132000F0B589B01F000E9B140005AA1D680E00C1
:101330000290FFF755FE029B0190402B08D1059BC0
:10134000ED1B5A1EAD185B421D403C237D190293D4
:10135000019B0E9AEB181360029B3E3B03935F4286
:101360005F41FFB2652E1AD012D84F2E43D0642EA3
:1013700052D0A30700D06DE0414B22689A4269D158
:101380002B0039002000019A10F012FE09B0F0BDC8
:10139000662EEED120000DF009FC04002BE02000A9
:1013A0000DF004FC4402A40DC30400D50134C10DAA
:1013B000C9B21F23FF2918D00023994215D00B0072
:1013C000703B22D50B3325DB80227023D2002243D1
:1013D0005B1A92B21A410121130094B2CC400B4027
:1013E0000A4202D06418A4B20023C00FC003044311
:1013F0009B021C43A4B20198042800D904202300B6
:101400002A003900FFF776FFC0E73F2BEDDD1F23F1
:101410000024EAE70024E7E720000DF0C7FB39F0DD
:1014200029FF1024BB00069007911B1904AA9B18E2
:10143000083B2A001B6839000420FFF75BFF039B71
:1014400004355A1E93419B001B1904AA9B18083BA4
:101450001C68D0E720000DF053FB019B0400042B17
:10146000C9D90021884200DAFF312800019A39F0F9
:10147000D3FF029B3E2BBED1019B043BED18BAE784
:10148000404B041070B50C00712807D8612806D8AD
:1014900001281DD04238C1B20F290DD970BD623864
:1014A0000F28FBD83DF080F914FA25FA1FFA162D03
:1014B000FAFA2DFAFAFAFA190F28EFD83DF074F972
:1014C00008EEEEEEEEEE0A21EEEE21EEEEEE210D4E
:1014D000A354E3E752001353E0E7D200A2181360CD
:1014E000DB175360DAE71800950039F059FE6051B8
:1014F000D4E7D20018008C1835F090FD20606160B0
:10150000CCE792001351C9E7F7B506000F001400AD
:101510001D00642821D0662818D04F2827D0032327
:101520002A001A4001921D4224D1174B2A689A4280
:1015300020D10100019A4020FFF752FD44430200F0
:10154000019928003B1910F033FD05E094001800C4
:101550000C190DF02BFB2060F7BDD40018000C19FE
:101560000DF024FB39F086FE20606160F4E7940002
:101570006350F1E728000DF0C3FA220003003900A0
:101580003000FFF77FFFE7E7404B041037B50C0052
:1015900001A9206813F092FD0500606813F00EFDAC
:1015A00029000023019A08F0A7FE0500A06813F0A7
:1015B00005FD512809D0DD239B00984212D002215D
:1015C000502803D0084819F019F9012100232800F8
:1015D0001A0018F023FC0549040008200DF0C7F993
:1015E00044603EBD0021F1E733E9031010420410CE
:1015F000F0B587B00192D02212061268344B9200E7
:10160000D3581A69DD68944601281BD94C68062C0A
:1016100015D0A20710D12F4A266896420CD1260079
:10162000022811D08A68062A0ED0900704D12948D2
:1016300017681600874207D0002019F0B3FA2E0071
:101640001400EDE72E00140003220F68174222D188
:10165000214A396891421ED162460595049202A83A
:101660001C61DE601D490DF013F9032378681842F0
:1016700008D103681A4A934202D01A4A934201D110
:1016800043685C6018F0C2FB040001200DF00EF905
:10169000200007B0F0BD019B002B0DD1380013F0E6
:1016A0008DFC08F036FE01230193220033000199DE
:1016B00018F0B4FB0400EBE702A9052238000DF096
:1016C00069FC0023039A0299DF2008F015FEECE77D
:1016D000D41A00204044041010420410A1980110B4
:1016E000844904106449041010B50222FFF780FFFA
:1016F00010BD10B50122FFF77BFF10BD10B5002211
:10170000FFF776FF10BD70B506000D0000246B6872
:10171000A34200D870BDAB68E200D158002904D0C4
:10172000042902D0300010F04FFF0134EFE7000031
:10173000F0B587B0002806D1544955480AF0D2FCCC
:10174000062007B0F0BD0C68524B9C4257D10021D7
:10175000080011F032F950490390FFF7D4FF4F49C8
:101760000398FFF7D0FF039F4D4E3578002D14D11D
:101770004C4A03A9012011F019F8039805AA04A9FD
:1017800011F032F9049B03339B080193019B404EF7
:10179000AB4211D130004449D0E730003CF0CEFEDE
:1017A000C11E0400300013F0A3F80134010038001A
:1017B00010F00AFF3619D8E72F00059BBA00D05861
:1017C00013F012FC010030000AF08CFC019BFF18A2
:1017D000049B9F420DD212231C1A002C07DD3000FF
:1017E0003249013C0AF07EFC002CF8D1E5E71234C6
:1017F000F3E730002E490AF075FC0135C6E72000FA
:101800000DF0C2F80600224D2A4928000AF06AFCB1
:10181000002120000DF0EAF82800F28826490AF09D
:10182000D5FF264B9E4224D10026646804346368A9
:101830009E4200D384E7A368F2009B181F68002F24
:1018400015D05B681E49280001930AF04BFC00216B
:1018500038000DF0CBF81B4928000AF043FC0021AA
:1018600001980DF0C3F8280011490AF03BFC01363D
:10187000DDE7154B9E4200D03400E37C002B00D105
:101880005EE703339B00E418CEE7C04648A204108D
:10189000743C04107A170000384D0410A44C041056
:1018A00084C10410A844041042E90310481C041029
:1018B000E91C041066E903106EE90310E44D0410FE
:1018C000471C04107EE903102C570410022210B5A7
:1018D00081680348C900114308F0B0FD10BDC0463F
:1018E000BC1F002010B51BF090FA08490822040024
:1018F0003CF04EFC01002000002904D10A00083011
:1019000007F01AFB10BD23F0ABF9FBE783E90310E6
:1019100010B50400FFF7E6FF02280CD061686D22C5
:10192000200002391BF0DCFA2000FFF7DBFF023851
:1019300043425841400010BD10B50400FFF7D2FFEC
:10194000012806D0200003491BF0BEFA2000FFF753
:10195000DFFF10BD96240410F0B5D026360633689C
:101960002E4D9B005B5987B000AF0400B960186929
:10197000BA217A600EF0A8FE3368F8609B005B59CC
:10198000002218692649043008F058FD1423050088
:10199000F918F86813F092FB6A1E954101007B6903
:1019A000641BC318002C05D18B420BD11D491E4866
:1019B00018F020F99942F7D2013B1A782E2AF9D172
:1019C000013CEFE76A465E1A7B681B68F418FB600F
:1019D000631C3B600733DB08DB00D31A9D466D4672
:1019E0003200280039F01EFDFB68002B09D02E23A1
:1019F000AB55BB6801361968FA68A81939F012FDB1
:101A00003C682100280017F03BFB17F01CFCBD468A
:101A1000BB6818607B681C6007B0F0BDD41A00205A
:101A2000720E00008CE90310D846041030B5D300C4
:101A30000D000222CC2185B01A43FF31040018F0BA
:101A40003FFBD022120612680C4B9200D3586168FB
:101A50001A6968460292DA6819610392D9600849E6
:101A60000CF016FF00222100280003F073FF18F08D
:101A7000CDF901200CF01AFF05B030BDD41A0020BA
:101A8000A1980110F0B5050085B008000F001BF00B
:101A9000BCF90822224904003CF07AFB002819D145
:101AA000260008366A46300001A907F045FA019B76
:101AB000022B0FD1009C2B002200083303CA03C362
:101AC000300017F0A5FB02002800A168FFF7AEFF69
:101AD00005B0F0BD200017F09BFB7B680600E41802
:101AE000033C23786D2B07D102A9029517F03AFA2F
:101AF000320003990298E9E708F00BFC0222CC219E
:101B000004000368FF31DB0028001A4318F0D8FAFC
:101B10006A6801211300200018F080F9D8E7C04658
:101B200083E90310F0B50300B3B00868032B0AD9AA
:101B3000CA680392042B25D00B695C10002B05DAD0
:101B4000002018F05BFE06230024039305A913F080
:101B5000B5FA0690002C04D0200005AA06A9FFF7CC
:101B6000FBFE059B002BEBD0002701263D000297D2
:101B7000059BB34208D2039B062B00D00295029826
:101B800033B0F0BD0024E1E7069CB34202D0A35D70
:101B90002E2B23D13100200017F072FAF11B019097
:101BA000E01917F06DFA5A4B009008AA186807A9B7
:101BB0000DF050F8079B002B12D0019B0022D9009A
:101BC00002235448194308F039FC002808D044681F
:101BD000029B002B00D102942500771C0136C7E739
:101BE000802112AA0EA81BF0B6F8002D3BD12900C7
:101BF000009811F0CBF8041EEAD1454B0AAA1868E8
:101C000009A90DF027F82C00099B9C420AD3012159
:101C1000009811F0BBF8041EDAD13F493F48019A01
:101C200017F0F2FF00230A9A0F93A30098580BA90C
:101C300013F044FA0B9A0100002A06D00EA81BF0FC
:101C40004BF82F210EA81BF0F6F8009817F0FBFABE
:101C500001000EA81BF038F90EA8FFF76DFE071E55
:101C600020D10134D0E7E72128000BAA490017F062
:101C70003FFF0B980028D0D013F0B6F901000EA852
:101C80001BF022F92F210EA81BF0D5F8009817F0B1
:101C9000DAFA01000EA81BF017F90EA8FFF74CFEA8
:101CA000071EBAD0019811F04FF8019B04001C499F
:101CB0000BA80D930CF0ECFD012F23D10F99109878
:101CC00012F016FEE72102004900200018F0F8F992
:101CD0000EA814490F9F1BF0F7F80EA8FFF718FE87
:101CE000022803D120000EA9FFF7CCFE0F97002D8C
:101CF00004D022002800009918F0E2F900200CF02E
:101D0000D5FD65E720000EA9FFF7BCFEEFE7C04652
:101D100014200020BC1F0020A0E90310D8460410A6
:101D2000CD18001016230410036A1B8B012B02D060
:101D3000C3685918C160704710B50400836A406ACF
:101D40009B6F9847238B226A01339BB22383918C2C
:101D5000994200D2938410BD10B50400038B013B5F
:101D60000383836A406A0833DB6F984701212000B0
:101D7000FFF7DAFF10BDF0B589B004000D00059241
:101D80000693002B03D00823CA8A1343CB82302248
:101D9000059BEB83236AD98A0A43DA821B78002BDE
:101DA00044D1A36A2900B4331E68059A069B606A71
:101DB000B04709B0F0BDD26AF300D118D35C0791E7
:101DC000053B012B1FD8002318E0049BEA6ADB00C7
:101DD000D018D35C062B0FD1079B596843689942F2
:101DE0000AD1079B606A5A88A36A1B691F000023F7
:101DF000B847039B01330393049B013304932B8D5A
:101E0000049A9342E1DC0136226A138DB342D2DC9C
:101E1000039AA36A606A002AC3D0069AB833009274
:101E20001C682900059B039AA047C2E70026039679
:101E3000EAE710B50400836A002188331B68406A12
:101E40009847A36A606A0F211B6B9847A36A606A70
:101E5000CC331B680121984703212000FFF764FF62
:101E600010BD70B50400836A00225B6C406A98471D
:101E7000A36A606AC0331D6800231A001900A847CE
:101E80002000FFF7D6FF70BD10B5836A8968002275
:101E90001B6D406A0909984710BD10B5836A8968AF
:101EA000DB6B406A984710BD10B5040008001100B4
:101EB0001A0019F011F8236A436000238360E36974
:101EC000002B01D1E06110BD1A009B68002BFBD1F3
:101ED0009060F8E7F0B58BB005000C0000AF00296A
:101EE00002D10121116018E0032319401C421CD1CA
:101EF0006368F961DBB2682B07D1E3681B091360E3
:101F0000A4680123002CECD0FB610F232340022B9B
:101F10000DD1FB692109002BE4D0AB6A0022DB6AFA
:101F2000686A9847BD460BB0F0BD0023ECE7FB693B
:101F3000002B02D1A3681B091360260063681B0AEB
:101F4000FB60013B7B61FB689B001B197B60B068F9
:101F50000436000917F06EF97B691B187B617B68FA
:101F60009E42F4D16A467B690733DB08DB00D31A53
:101F70009D46BB603B610023BB61BB699A002300A7
:101F80000833985824230009F91817F066F97E6A77
:101F900001003200386939F045FA3B699E19BB6986
:101FA0000133BB61BA69FB68934204D0731C3B6187
:101FB0002E233370E1E77969B86817F061F8AB6AEE
:101FC0000100DB6A0022686A9847FB69002BA9D0F0
:101FD0007B6804349C42A5D0A168AB6A00221B6DCB
:101FE000686A09099847F3E7002906D00323826845
:101FF0000B40134301D10B6883607047F7B50700AE
:102000000C001E0000290DD003230D001D401942B5
:1020100011D14B68D9B291420DD11B0A0193019B9A
:102020009D4200DBF7BD2300AA0008333800995811
:10203000B0470135F3E721003800B047F2E7000070
:10204000F8B50F0011001A00002304008578066916
:10205000837003610F4BFFF7D1FF6368002B18D12A
:10206000618A00290BD0228A002A08D1A36A606AFB
:10207000A0331B689847A36A606A1B6C9847238A41
:1020800039002000628AFFF776FE6B1E9D412661B3
:10209000A570F8BD0929001070B5437804000D0043
:1020A000012B06D1036A0A001B8B0221FFF7FCFEFD
:1020B0002861AA6829694C232000FFF7C1FF70BD81
:1020C00070B51300427805000C00012A04D10A0003
:1020D0000721FFF7E9FEA061A66928003100462329
:1020E000E268FFF7ADFFB08A70BD000010B59D2219
:1020F000024B8968FFF782FF10BDC046F92D001022
:1021000010B56B22024B8968FFF778FF10BDC046FF
:10211000C1490010436870B50D0004001100002B88
:1021200007D104480EF0E8FD290060602000FFF7A9
:102130005BFF70BD9445041010B5024AFFF7EAFF3B
:1021400010BDC046B0E903104B6870B5DBB20400A7
:10215000092B10D1858A094B9D4203D12000084AE2
:10216000FFF7D8FF638B228B2900D21AA36A606A1B
:102170005B6F984770BDC58AEDE7C046FFFF000062
:10218000BDE9031070B5050000290FD00F230B40E7
:10219000022B0DD10C0920000CF030FB002806DAD0
:1021A0002200054905480EF031FE6860002070BD30
:1021B000034AFFF7AFFFF9E7D6E9031028450410FB
:1021C000DBE9031070B5140005000E001278002B37
:1021D00013D0002A07D0032A05D0104A3100280066
:1021E000FFF798FF08E0032626706168286A18F058
:1021F000D1FE002800D0067070BD002A0AD101234C
:1022000023702100006A18F0CEFE2378044A012BC7
:10221000F2D1E3E7062AEFD0024ADFE7E2E9031052
:10222000EFE90310FCE90310F0B5437804000D005A
:1022300085B0012B11D14B68DBB21A00103A514224
:102240004A41D2B20192102B09D0036A1B78002BAD
:1022500005D129000F4AFFF75DFF05B0F0BD28004A
:102260006D2103AA083015F0F5FF00260700B742DC
:10227000F3D0039BB200D158206A0022090918F05C
:1022800068FE29000200019B2000FFF79BFF01363A
:10229000EDE7C04603EA031010B50B004178026A6F
:1022A000012904D11900100003F0FFFA10BD816A62
:1022B000406A203103F009FBF8E710B504006278AA
:1022C0000B00006A012A02D118F043FE10BDA16A7A
:1022D00002001031606A03F0F8FAF7E770B5050004
:1022E0000C1E1AD0CB0705D5836A49105B6B686A50
:1022F000984712E08B0714D00F2309092340022BC3
:1023000009D0062B0AD0052907D0836AC9B21B6BF6
:10231000406A984701E0FFF7D0FF70BD836A9B6B6E
:10232000E5E7836A0968DB68406A98476368034A9F
:10233000DBB29B00210028009B58D9E7B82B041082
:10234000F0B505000C001700032685B001932000AE
:1023500015F016FD002807D0002F0CD1AB6A0199AB
:102360009B6E686A984706E0200015F00EFD002875
:1023700003D0002FF2D105B0F0BD002C43D0344281
:1023800041D163681A0A0292FF2213401E2B1AD110
:10239000002F1CD0029B9E003619B442EBD0A168DE
:1023A0003A002800019BFFF7CBFF0434F5E721003A
:1023B0000122B00008310958039B28007A40FFF73A
:1023C000BFFF013608E01F2B17D1002FE2D00026F7
:1023D000EB6803930133EB60029B013BB342E6DC05
:1023E0000299019B0131890009593A002800FFF741
:1023F000A7FFAB6A03999B6AB3E7202B03D11F3B6E
:10240000A4685F40A3E721002800FFF767FFAB6ADD
:102410003900DB6E019A686A9847ACE7036A70B5C9
:102420001B780400072B05D0022B03D0144AFFF7BA
:1024300071FE70BD8D68002D0FD1A36A0F211B6B3B
:10244000606A9847A36A606ACC3300211B6898478A
:1024500001212000FFF768FCEBE7AB070BD16B68AD
:10246000DBB2AF2B07D12000A968FFF737FF2000B0
:10247000FFF7DFFCDDE729002000FFF72FFFE1E792
:1024800019EA031070B5437804001500CE68012BDB
:1024900006D1036A0A001B8B2900FFF705FD706156
:1024A0000023200071691A00FFF765FC2000F16825
:1024B000FFF714FF062D05D1A36A002188331B689E
:1024C000606A9847A36A0121BC331D680023606AD3
:1024D0001A00A84770BD70B50D000400C968FFF769
:1024E000FDFEA9682000FFF7F9FE70BD4B6870B5CE
:1024F000DBB204000D00342B11D18968FFF7EEFE2A
:10250000ED68AD68002D10D1A36A0F211B6B606AC6
:102510009847A36A0422A03302211B6819E0836A4A
:102520000F211B6B406A9847EBE70326354225D104
:102530006B68DBB29A2B0FD1A36A0F211B6B606A09
:102540009847A968002910D10422A36A0231A03358
:102550001B68606A984770BD9B2B0FD1A96820004B
:10256000FFF7BCFEEB689968ECE72000FFF7B6FECA
:10257000A36A0422A03331001B68EAE72900200087
:10258000FFF7ACFEC5E710B504008968FFF7A6FEAB
:10259000A36A0021DB6C606A984710BDF0B58D68B6
:1025A00087B004000292002D09D1002A26D0022211
:1025B0002900836AA0331B68606A98471EE00327DE
:1025C0002B003B4001933D4200D08FE0FF266B681B
:1025D0003340372B14D1029B002B06D0836A022292
:1025E000A03301211B68406A984720002900FFF7AB
:1025F00075FEA36A606AA4331B68984707B0F0BDF4
:102600009F2B73D1E86843683340A12B5ED1A22190
:10261000083005AA15F01EFEA9680390002926D0EF
:10262000394224D14B683340372B20D1029B002BF9
:1026300006D0A36A411CA03302221B68606A984737
:102640002000A968FFF74AFEA36A606AA4331B68EA
:1026500098470127019B039A93420DD1002FCDD1BA
:102660001900A36A0322A0331B680131A4E72000EC
:10267000FFF734FE0027EDE7019A059B9200D15841
:102680000E1E09D003230026194205D14E68FC33E3
:102690001E40373E73425E412000FFF71FFE002FB1
:1026A00010D0002E05D1164A29002000FFF732FD78
:1026B000A4E7A36A606AA4331B689847019B0133AF
:1026C0000193C7E7002EF9D00E4AEDE7AB68002B67
:1026D00006D03B4204D15B6804223340372B00D044
:1026E000052229002000FFF7CDFE87E72900200002
:1026F000FFF7F4FDA36A0322A03301211B685BE707
:1027000024EA031032EA031010B50122FFF746FF56
:1027100010BD70B50D00C9680400FFF7DFFDAB68A0
:1027200002211B09DBB2332B01D03F3BD9B2A36A94
:10273000606A98331B68984770BDF8B54F680C0005
:10274000896805000026FFF7C9FD3F0A0C340236F0
:10275000B74200DCF8BD61682800FFF7BFFD2168C3
:10276000AB6A090924399C331B68686AC9B2984767
:102770000834ECE7F7B54E680D0033000D3BDBB2D3
:102780008968040001930127FFF7A8FD360AB742C4
:1027900000DBF7BD2B00BA00083399582000FFF783
:1027A0009DFDA36A01999C331B68606A98470137B5
:1027B000EDE7F7B54E680D0089680400FFF78EFD60
:1027C0000023360A0093032E03D9E36800930133F4
:1027D000E36001270C3501957B1C9E4221DC032E12
:1027E0001ED9E568606A6B1CE360A36A29009B6ED2
:1027F0009847A36A00999B6A606A9847A36A012177
:102800009B68606A9847A36A606A1B6E9847A36AD0
:10281000606ADB6D9847A36A29009B6A606A9847E3
:10282000F7BD019B200059680237FFF757FDB742FB
:1028300007DAA36A606A5B6D9847A36A606A5B6E99
:1028400098470F22019B606A1968A36A0A409C336B
:102850001B680A2A13D10909CAB20621252A01D008
:10286000343AD1B29847B74205DAA36A00211B6F08
:10287000009A606A9847019B08330193ACE7FF25F3
:102880004A682A40852A01D13221EBE78A6807216C
:10289000002AE7D03321E5E710B504008968FFF787
:1028A0001DFDA36A032198331B68606A984710BD19
:1028B000F7B54A680E00D3B21E3B59424B410400A3
:1028C0000025C768DBB201937B1CC360130A009329
:1028D000009B9D4205DBA36A39009B6A606A9847AA
:1028E000F7BD3300AA00083399582000FFF7F6FC23
:1028F000009B01359D42EEDAA36A3A001B6F0199F5
:10290000606A9847E4E700000F2370B50B400400AD
:10291000022B14D04868C0B2492809D0483808288A
:1029200018D83BF049FF08170717171717050700B6
:102930000123A37070BD8E680D69002D0DD1A378A1
:10294000002BF7D1638A002BF4D020001C4AFFF73C
:10295000E1FBEFE78E68CD68EFE7A378002B27D087
:10296000238A01339BB22382012B0FD1618AA36A90
:10297000606A002919D0A03300221B689847A36A17
:102980000222A03300211B68606A984729002000BA
:10299000FFF7A4FCA36A606A9B6B31099847A36A9E
:1029A000606AA4331B689847C4E71B6C9847E6E746
:1029B000638A2900013320006382FFF78FFCB9E7A7
:1029C0003FEA0310F7B504000E00C568CF686B1C22
:1029D0000193AB1C0022B968C3602B00FFF7B0FC69
:1029E000B1682000FFF77AFCA36A691C606A9B6EDD
:1029F0009847A36A2900606A9B6A98470121A36AE5
:102A0000606A9B6849429847F9682000FFF766FCB6
:102A1000A36A01999B6A606A9847F7BDF0B543695C
:102A200085B00393C668438B771C0293B31CC360C5
:102A3000038B04008682C782438388680D0015F0EB
:102A40009FF9002821D1E368A86801930133E3606E
:102A500015F09BF9002804D1A36A39009B6E606AC7
:102A60009847A36A01999B6A606A98472000E968C1
:102A7000FFF734FCA36A39009B6A606A9847012219
:102A80002000019BA968FFF75BFC039B20006361AA
:102A9000029B29696383FFF721FCA36A31009B6ACB
:102AA000606A984705B0F0BDF0B5C36887B0019380
:102AB0000133C360040088680D0015F061F9021E3F
:102AC00020D1E76820007B1CA968E3603B00FFF78A
:102AD00037FC2000E968FFF701FCA86815F055F9FC
:102AE00000281ED12B69002B02D16B69002B04D06A
:102AF000A36A01999B6E606A9847A36A39009B6A32
:102B0000606A98472800712105AA103015F0A2FBD1
:102B100000260390039B9E420AD120006969FFF7BB
:102B2000DDFBA36A01999B6A606A984707B0F0BD14
:102B3000059BB200D758B86815F022F9021E1BD1C8
:102B4000E368200002930133B968E360029BFFF75A
:102B5000F7FB2000F968FFF7C1FBB86815F015F91D
:102B60000028DED1A36A01999B6E606A9847A36A28
:102B700002999B6A606A98470136CBE78222F8B5D2
:102B8000174B92009F5804000D00002F26D1C668F5
:102B90000122731CC36089683300FFF7D1FBA36A6D
:102BA0001F2101225B69606A9847E96800290AD001
:102BB0002000FFF793FBA36A3A00BC331D68012194
:102BC0003B00606AA847A36A0121C8331B68606A9A
:102BD0009847A36A31009B6A606A9847F8BDC0466F
:102BE000681F002070B58D680400002D06D12900F3
:102BF000836AC8331B68606A984770BDAB070FD102
:102C00006B68DBB25E2B0BD1A968FFF767FBE96845
:102C10002000FFF763FBA36A0221C8331B68EAE7C1
:102C200029002000FFF75AFBA36A0121C8331B6863
:102C3000E1E710B504008968FFF750FBA36A606AFA
:102C4000DB6D984710BD0000F8B5036A04001B78DF
:102C5000072B03D01B4AFFF75DFAF8BD8D68002DE6
:102C60000AD1836A0F211B6B406A9847A36A606A86
:102C7000C4331B689847F0E703232A001A401D421B
:102C80001ED16B68DBB21B2B1AD1C668EF68731CB0
:102C9000C360B9683300FFF753FBA9682000FFF752
:102CA0001DFBA36A606AC4331B689847A36A31009E
:102CB0009B6A606A9847F9682000FFF70FFBD5E729
:102CC0002900F9E75DEA0310F8B505000C004E682D
:102CD000360AB700CF19BC4207D1AB6A3100A03326
:102CE000686A00221B689847F8BDA1682800FFF7B2
:102CF000F5FA0434EFE7896810B5002906D1836A34
:102D00000A00A0331B68406A984710BD4B681B0A35
:102D1000022B0CD1CB68002B09D09A0707D15B6836
:102D2000DBB2AC2B03D10622FFF7ACFBEDE7FFF7DC
:102D3000CBFFEAE7F8B505000E0000244F683F0A14
:102D4000BC420FDA3300A200083399582800FFF77D
:102D5000C5FA6B68002B06D00234A4002800A159E4
:102D6000FFF742F9F8BD0134EAE710B50400FFF7B8
:102D7000E1FFA36A22219C331B68606A984710BD5B
:102D800070B58D680400002D07D101222900836AE7
:102D9000A0331B68606A984718E00322154221D1CE
:102DA0006B68FF211800084092281BD11B0A022BD8
:102DB0000DD1EB68002B0AD0134208D15B680B40A1
:102DC000AC2B04D129002000FFF75CFB70BD29006B
:102DD0002000FFF7AFFFA36A6968A03301221B68D8
:102DE000090AD7E729002000FFF778FA0122A36A31
:102DF0001100A0331B68CDE70F23F7B50B4005008A
:102E00000C00022B03D10909FFF746FAF7BD002990
:102E100065D00327394262D1FF224B6813402C2B27
:102E20003BD18968FFF75AFAE668002E57D0310087
:102E300039403E4253D1FF207268330010408E2843
:102E40000AD10F00130A0193019B013BBB4211DC25
:102E5000019B01339B009B595A68D2B2312A12D18F
:102E600028009968FFF73AFAAB6A0221DB6C686ABE
:102E70009847CBE73300BA00083328009958FFF78A
:102E80002DFA0137E0E7322A29D19968AB6A686ADE
:102E90001B6D0909303A9847B8E72D2B1FD18C6874
:102EA000002C1CD062682C3B120A022A0AD1E2686C
:102EB000002A07D03A4205D15368FF221340AC2BB9
:102EC0000DD0012362685E1C013B120A9A429DD913
:102ED000B300E1582800FFF78FFF3300F2E721002D
:102EE0002800024AFFF716F990E7C04669EA031086
:102EF0009C460223F7B50400006A0192C68A0D00C1
:102F00001E4205D0354A29002000FFF703F9F7BD1E
:102F10000F221140022918D1A3782909002B10D0C3
:102F2000838B013383830027012300930029EED094
:102F3000002218F00EF803780600002B37D0284A3C
:102F4000E1E7438B01334383EDE76968019BC9B235
:102F50002F0099420CD1A968A3780909002B03D04E
:102F6000838B01338383DFE7438B01334383DBE7C9
:102F7000614515D1A378002BC4D10121A170A968A6
:102F80000029C4D004273E430A40C682022A03D146
:102F9000F9401F000323C8E70F0089680909F9E712
:102FA0000223A9683343C38209090523BDE704232B
:102FB0000370009B4370236A1B8B032BA7D1019BDB
:102FC000482BA4D1002FA2D02000F968FFF7DAF82F
:102FD000030170781843707099E7C04673EA0310D4
:102FE00077EA031010B549234822FFF781FF10BD8F
:102FF00010B54F234E22FFF77BFF10BDF0B50D003B
:103000000162002142702B7891B0049204008E4A34
:10301000C160072B2DD1049B012B05D0036B021D32
:103020001B680499C06A98476378EF68032B10D136
:10303000380046210FAA0C3015F00CF9236B010063
:103040009B680F9AE06A984763686883002B00D0FA
:10305000BBE03969002947D00F230B40022B3FD139
:103060000B09752B43D009D83E2B42D05E2B3BD0A9
:10307000764A2000FFF74EF811B0F0BDED22032094
:10308000920007909342F3D17B6919210DAA0CA8F5
:103090000C9315F0DFF800230A900893089B0A9A16
:1030A000934228D16378012B16D9236B07995B686B
:1030B000E06A98476378042B0ED1079B206AE26A86
:1030C0000393438B0521029300230193009393689C
:1030D0000069D26802F02BFC6368002B75D1CBE746
:1030E00020005B4AFFF716F802230793CCE7002382
:1030F000FBE70123F9E7089B9B000593059A0D9BCD
:103100009958FF224B681340082B02D1089B0133CA
:10311000C3E7052B01D04F4AABE7CB68002BFAD1B0
:10312000FF208B685A6802402C2AF4D19E681D3A11
:103130003240022AEFD1DD68002DECD0AB07EAD196
:103140006B680340302BE6D12800A4210EAA08307A
:1031500015F080F8404B360906909E421CD101289C
:1031600005D10F210E9A13680B40022B04D03B4A65
:103170000D9B059959587CE7E1684B1CE360049B63
:10318000012B1ED01268236BE06ADB681209984796
:10319000002816D1324AEBE7EC23FF339E4217D1C9
:1031A000069B012B04D10E9B1968069B194201D185
:1031B0002C4ADDE7049B012B03D0E06A4910FDF7A0
:1031C0009AF96368002BA1D02F003B68A36053E7F6
:1031D0008D239B009E4229D1069B012B06D90E9B75
:1031E00001221B681E001640134201D11E4ABFE790
:1031F000049A012AE5D05B100B930E9AB3009858FD
:103200000FA914F093FD002801D1184AB0E7E36A32
:103210000F9809930EF0DBFF0B9902000998FDF758
:1032200071F9069B0136B342E7D1CAE7049B012B33
:10323000C7D0236B31001B69069A9C46E06A66463C
:103240000E9BB047BDE7C04681EA03108EEA03102B
:1032500092EA03109AEA0310BF020000A0EA0310EA
:10326000ACEA0310B0EA0310BCEA0310CEEA031084
:1032700010B50B004178026A012904D11900100031
:1032800002F013FB10BD816A406A183102F01DFB89
:10329000F8E70000F7B5032704000D0016003942D7
:1032A0000DD00F230B40022B14D109099E43012E90
:1032B00002D0FFF7DDFFF7BDFEF7FFFFFBE7496830
:1032C000FF200B0003402D2B7CD009D8062B0CD0FF
:1032D0002C2B13D0290020004D4AFEF71BFFEAE7F4
:1032E0002E2B00D183E09D2BF4D1002EF2D12A00A9
:1032F000090A0832200000F0F5F8DCE7022A03D0C2
:103300002000A968FEF7EAFFEB680093002BE1D0EC
:103310000323009A00991A401942DBD14B680F0031
:10332000D9B28E2909D11B0A17000193022E1AD196
:10333000019B009A01339B009F587B68DBB2312BC5
:1033400026D1022E14D1A36A606A5B6E9847A36AE5
:103350000121DB6C19E0009BBA000833200099586A
:10336000FEF7BCFF0137019B013B9F42F3DBDFE728
:103370002000B968FEF7B2FFA36A012EE8D19B6D69
:10338000606A98470021A36ADB6C606A984792E7FD
:10339000322B9FD1A36A606A012E09D15B6D9847D9
:1033A0000022A36AB9681B6D0909606A984782E721
:1033B000022E01D11B6E9847B968A36A01221B6DCA
:1033C0000909F2E7AA68002A84D0002E82D1516848
:1033D000090A022909D1D368002B06D0980704D125
:1033E0005B68DBB2AC2B00D174E7083282E7002ABD
:1033F00000D06FE7A9680A1E00D17BE7394203D1EC
:103400004B680340922BE2D02A000121083271E779
:10341000D9EA0310F7B504000D00C6681F00731C3D
:103420000193B31CC360836A31009B6A406A0092B7
:103430009847A36A606A8C331B68711C9847A96817
:1034400000222000FFF726FF2D69002D2CD10099C6
:103450002000FEF743FF236A1978A36A06291CD1CE
:10346000CC331B682900606A984720000121FEF7D1
:103470005BFCA36A606ADB6D9847A36A3100606AEF
:103480009B6E9847A36A0199606A9B6A9847A36AF2
:10349000606A90331B689847F7BDBA00A8331B6871
:1034A000606A05329847E8E7FF226B681340AD2B4E
:1034B00007D1A968330000222000FEF741FFED6824
:1034C000C3E72000E968FEF709FFA36A606A883352
:1034D00001211B68984729002000009A7B1CFFF7F8
:1034E00099FFCAE7F7B50126050017000C00009107
:1034F00001927642002C16D1731C05D1AB6A00995B
:10350000AC331B68686A9847009B9C4228D0019A9C
:10351000A300D1580022A64200D189682800FFF7F5
:10352000B9FE0134F0E73968002912D003231942AB
:103530000FD1FF224B681340222B0AD101360BD149
:10354000009B686A1E1BAB6A3100B0331B68621EA9
:103550009847013C0437CDE72800024AFEF7DAFD20
:10356000F7BDC046E4EA0310F0B585B004001600CC
:1035700001910293002904D10299FEF7AFFE05B034
:10358000F0BDC7687B1CC3601568002D2AD00323DB
:103590002A001A4003921D4224D16B68DBB27B2BB8
:1035A00020D1A968FEF79AFE39002000039AFEF7A1
:1035B000C3FB2000039AE968FFF76CFE0199321DF6
:1035C0002000029B0139FFF7CFFFA36A3900DB6FB0
:1035D000606A984720000321FEF7A6FB2000FEF753
:1035E000BBFBCCE729002000FEF778FE200000227C
:1035F0003900FEF7A1FBA36A606ADB6D9847DDE73F
:1036000037B5050008000C0001AA7A21083014F033
:1036100021FEE3680100019A2800FFF7A5FF37BDEE
:10362000F0B58A680D00CB680F2104008BB00A400A
:10363000022A00D002E1002B00D1FFE003273B4229
:1036400000D0FBE0FF205A6802402C2A00D0F5E0B1
:103650009A681140022900D0F0E012097C2A00D0BB
:10366000ECE0DA6853680340302B00D0E6E0936862
:10367000A23109AA08A8089314F0ECFD431E022BFE
:1036800000D9DBE0099B1A680192012800D1CAE049
:10369000022800D1C5E09F68FA0700D4CEE07A1076
:1036A00000D1CBE05E68019B002B08D09B0706D1C0
:1036B000019B5B68DBB2A63B022B00D8BEE0002E6C
:1036C00007D0B30705D17368DBB2A63B022B00D845
:1036D000B4E0AB68320004932B6905936B69E5682D
:1036E00003936369A5820793638B0693AB1C0293D4
:1036F0006B1CE382238B63832B1DE36001231A4041
:1037000002921E4203D131002000FEF7E7FD2000A7
:103710000199FEF7E3FDA36A606A9B6EE91C984776
:10372000A36AA91C9B6A606A9847A36A606A5B6D7A
:103730009847002220000499FFF7ACFD200005996E
:10374000FEF7CCFDA36A606A9B6A691C9847390042
:103750002000FEF7C3FDA36A0E219C331B68606A3C
:103760009847A36A606A9B6AE91C9847029AA36A11
:10377000002A5BD19B6D606A9847A36A606A1B6EE2
:103780009847A36A00219C331B68606A002F00DA07
:10379000012100269847A36A0121DB6E606AAA1CFA
:1037A0009847079B6361069B6383039BB3421ED0CC
:1037B000A36A606ADB6D9847029BB34203D1A36A98
:1037C000606ADB6D984720000399FEF787FDE66885
:1037D000606A731CE360A36A31009B6E9847012105
:1037E000029B606A5940A36A01319B689847A36AAB
:1037F00029009B6A606A9847A36A606ADB6D9847F4
:10380000029B002B03D1A36A606ADB6D9847039B80
:10381000002B04D0A36A31009B6A606A98470BB002
:10382000F0BD03273EE7019E019048E7606A5B6DAB
:10383000984731002000FEF751FDA2E76369E66872
:103840000293638B771C0193238B200063831D4BB2
:10385000E9683343A382F31CE360E782FEF73EFD91
:10386000A36A606A883301211B689847A36A3900FC
:10387000606A9B6A9847A36A606A8C331B68B11CB4
:10388000984700222000A968FFF704FD200029695D
:10389000FEF724FDA36A3900606A9B6E9847A36A0D
:1038A000B11C606A9B6A9847A36A606A90331B6880
:1038B0009847029B20006361019B69696383FEF75F
:1038C0000DFDA7E70080FFFFF0B587B004001700EB
:1038D00002910393002904D10399FEF7FFFC07B07E
:1038E000F0BDC668731C0193B31C0493F31C0093D2
:1038F000331DC3601568002D00D1D1E003232A00D9
:103900001A4005921D4200D0CAE06B68DBB27B2BE7
:1039100000D0C5E0A968FEF7E1FCA36A606A5B6DB0
:103920009847E12120004900FEF79BFA2000059A04
:10393000E968FFF7AFFC022231002000FEF7FCF936
:10394000A36A606A03219B68984702993A1D200088
:10395000039B0139FFF7B8FF0321A36A606A9B68E4
:1039600049429847A36A320004330199DD6F606AC7
:10397000B31CA847A36A606A5B6D9847A36A606A34
:103980005B6E9847A36A606A1B6E9847C421A36A5E
:103990000022FF31606A5B6C9847A36A606A5B6EC5
:1039A0009847A36A606A5B6E9847A36A606A5B6D1A
:1039B0009847A36A00220A21606A1B6D9847A36A90
:1039C000606A1B6E9847A36A606A0F211B6B984759
:1039D000A36A0321C0331D680023606A1A00A84748
:1039E0002000FEF726FAA36A009A0021606ADB6EC7
:1039F0009847A36A606ADB6D9847A36A606A0F21E3
:103A00001B6B9847A36A0099606A9B6E9847A36AEC
:103A1000606A02219B689847A36A0499606A9B6A5E
:103A20009847A36A606A5B6E9847A36A606A5B6E98
:103A30009847A36A0199606A9B6A9847C421A36A60
:103A40000022606A5B6CFF319847A36A0F21606AAD
:103A50001B6B9847A36A606A5B6D9847A36A606AAC
:103A60005B6D9847A36A0321C0331D680023606A19
:103A70001A00A8472000FEF7DCF9A36A606ADB6D34
:103A800098470121A36A606A9B6849429847A36AE4
:103A9000606A9B6A009998472000FEF75DF91EE76F
:103AA00029002000FEF71AFCA36A606A5B6D984744
:103AB000E12120004900FEF7D4F9A36A606ADB6DBA
:103AC000984738E7F7B5CD6804000E00002D2DD1DA
:103AD0000378002B18D0036A1D78002D14D1D02153
:103AE000FF31FEF7EAFBB1682000FEF7F7FBA36A9F
:103AF0002A00BC331E6801212B00606AB047A36A0C
:103B0000606ADB6D984710E0B1688B0707D00F2320
:103B10000B40022B09D12000FEF7E0FBEFE7002964
:103B2000F9D04B68DBB23A2BF5D1F7BDAB0750D1DA
:103B30006B68DAB25B2A10D1ED68002D49D1006ABA
:103B40000378072BF1D1896808330B40022BECD1A5
:103B50000909573A17F0FDF9E7E7562A13D1553A04
:103B60008968FFF797FB2000E968FEF7B7FBA968B3
:103B7000A36A09093E399C331B68606AC9B2984739
:103B80000222B16889E0572A23D11B0A5F1E013344
:103B90009B005959FEF7A2FB002F03DDA36A606A60
:103BA0005B6D9847B16800222000FFF773FB002689
:103BB000BE42BADA0136BE4203DAA36A606A5B6DBE
:103BC0009847291DB30000222000C958FFF762FB67
:103BD000EEE703210D4264D16B68FF2218000193C8
:103BE000104006285DD1B768002F5AD00F4258D137
:103BF000786803001340062B53D1030A0093009802
:103C0000019B1B0A83424CD10300023B012B48D885
:103C1000BB68002B05D00B4203D15B681340222BFD
:103C20003FD0FB68002B05D09A0703D15B68DBB25D
:103C3000222B36D0009B022B08D03B69002B05D0ED
:103C40009A0703D15B68DBB2222B2AD02000A96837
:103C5000FEF744FB2000E968FEF740FB009B032BC6
:103C600007D120002969FEF739FBA36A606A5B6E01
:103C70009847A36A606A1B6E984700222000B968C3
:103C8000FFF708FB00222000F968FFF703FB009B09
:103C9000032B00D049E7002239692000FFF7FAFA28
:103CA00043E729002000FEF719FB002269E7000026
:103CB0000023F7B5C360030034334270016204008F
:103CC0000D0017001A70032A03D1C08E002828D1D6
:103CD000A0630026A36A39002A001B68606AE68692
:103CE000984706212000FEF71FF86778012F01D1C1
:103CF0006E84AE84EE68002E17D0B30715D17368BA
:103D0000DBB23F2B11D12000B168FEF7E7FAA36ABE
:103D1000606AC4331B689847A36A606A5B68984707
:103D2000FEBD800006F037FBD2E72878072800D9CF
:103D300092E03AF041FD049125414141410E3100AC
:103D40002000FEF7CBFAA36A0F211B6B606A98472D
:103D5000DDE7012F12D10023A3704622554B20002E
:103D6000F168FEF74BF92B8B032B07D1200031694B
:103D7000FEF708FA8301E88A1843E8827169DFE7F1
:103D8000A36A3168DB68606A98476378012B07D1C2
:103D90000023A3704C222000474BB168FEF72EF998
:103DA0002000F168FEF79AFAEB8ADB07AFD5A36A29
:103DB000606ADB6D9847C6E7F3680193012F05D170
:103DC00004223900206A17F0C4F86F83A36A3168AF
:103DD000DB68606A98472B78032B24D10122A36A01
:103DE000A0331B680021606A98472B78062B28D1E6
:103DF000A36A606A1B6C984701212000FEF75DFAF8
:103E0000A36A606A1B6C9847A36A606A1B6C984738
:103E100000232000B2680199FFF7FCFA2B78062BEB
:103E200000D074E78FE7042B04D1A36A0222A033E9
:103E30001B68D7E7052BD8D1A36A0322A0331B68E0
:103E4000D0E720000121FEF738FAA36A0121883368
:103E50001B68606A9847DBE7012F04D104220A211E
:103E6000280017F076F817212000FEF726FA162111
:103E70002000FFF7FDF9B168A36A606A9B6B09092E
:103E800098471A212000FFF7F3F920003169FEF767
:103E900025FA0A21280017F04CF80278A36A042AB0
:103EA00000D151E742881D690A210023606AA847B2
:103EB0002DE7C046E52F0010F12F001010B5036A62
:103EC00004001A8BFEF7FCF801002000FFF7D0F980
:103ED00010BD0000F0B58D6804006B6885B0DBB2E2
:103EE000032B09D12900FFF7E9FF0123AA69D18A31
:103EF0000B43D38205B0F0BD0121026AD28A0A4287
:103F000004D129005B4AFEF705F9F3E7162B00D030
:103F1000A2E0C668E968331DC360FEF7DFF9E2215D
:103F2000A36A606A00225B6C49009847A36A606AD2
:103F3000C0331F6800231A001900B8476369E76897
:103F40000093638B606A0193BB1CE3607B1CE3827C
:103F5000238B791C6383A36AA7829B6A98470122FB
:103F60002000B118FDF7E8FEA36A606A5B6D984710
:103F7000C6212000FF31FDF774FF2000A968002250
:103F8000FFF788F9A36A00229433606AB11C1B68AA
:103F90009847A36A711C606A9B6A9847A36A606A23
:103FA000D0331B689847A36A606A5B6D9847D42139
:103FB000A36A0122606A5B6949009847A36A606A44
:103FC0009C3308211B689847A36AF21C0021606A91
:103FD000DB6E9847A36A606ADB6D9847A36A01228B
:103FE00094333100606A1B689847A36A606AF11CC9
:103FF0009B6A9847A36A01219B68606A98472000E2
:10400000FDF7AAFEA36A606AD4331B689847A36AC7
:10401000606A9B6AB11C984720002969FEF75EF927
:10402000A36A606A791C9B6E9847009B31006361AC
:10403000019B606A6383A36A9B6A98472000696951
:10404000FEF74CF9A36A606A39009B6A9847A36A35
:10405000606ADB6D98474DE7280003AA7A21083093
:1040600014F0F8F8EB680100039A2000FFF72CFC2D
:1040700040E7C046EBEA0310F0B504000F001E0055
:10408000C56887B06B1C0593AB1CC3602900049204
:104090000122FDF751FE39002000FEF71FF9A36A47
:1040A000002294331B68606A691C9847A36A290040
:1040B0009B6A606A9847A36A606AD0331B68984716
:1040C000E368370001930133E36000230093009B12
:1040D000049A934216DB2000FDF73EFEA36A606A55
:1040E000D4331B689847A36A05999B6A606A98470E
:1040F00020000C99FEF7F2F8A36A01999B6A606AA6
:1041000098475DE03B680393E36802930133E36003
:10411000039B9E68009B01330093002E52D1049BA9
:10412000009A934244D10025A36A606ADB6D9847E8
:104130002E00039B2000D968FEF7D0F8002D24D074
:10414000A36A0F211B6B606A9847A36A31009B6AC0
:10415000606A9847A36A01219B68606A9847A36ACE
:104160000F211B6B606A984729002000FFF780F839
:1041700029002000FEF790F80121A36A606A9B687D
:10418000494298472000FDF7E7FDA36A01229433D6
:104190001B680199606A9847A36A02999B6A606AE2
:1041A0009847A36A01219B68606A984704378EE7A5
:1041B00020001E4A3968FDF7ADFF2000FDF7CCFD59
:1041C00007B0F0BD0325032335401E422CD1FF214B
:1041D000736832000B40762B02D1D568B6682D0982
:1041E000A36A606A5B6D984731002000FEF776F89D
:1041F000A36A08219C331B68606A9847A36A002160
:10420000DB6E029A606A9847002D00D18BE7290087
:104210002000FFF72DF8E6680222731C3100200011
:10422000E360FDF789FD84E70025D9E702EB031081
:10423000F0B5C76885B003937B1C16000D00022201
:104240003900C3600400FDF777FD002E2CD1A36A6E
:1042500003219B68606A984729002000FEF73EF81A
:104260000321A36A606A9B6849429847A36A606A0F
:104270000F211B6B9847A36A3900606A9B6A9847B5
:10428000A36A606A9B680121984720000B99FEF79A
:1042900025F80121A36A606A9B684942984720007B
:1042A000FDF75AFD05B0F0BD0A9B320000932900CE
:1042B0002000039BFFF7E0FED8E77FB5CE6805003E
:1042C00073680C00DBB2782B09D10022B36800922E
:1042D000019313002800A168FFF7AAFF7FBD742B8C
:1042E00017D1300003AA7721083013F0B3FF3369E8
:1042F0000200002B07D1F36800932800039BA168FC
:10430000FFF7BAFEEAE79B680193F3680093039B0B
:10431000E0E7080003AA77210C3013F09BFF00238D
:104320000200E9E70F2370B50B4004000D001600F2
:10433000022B02D01D4AFDF7EDFE31002000FDF7F3
:10434000CDFFA36A606A5B6D984763782E09012BE5
:104350000FD1226A1378033B032B0AD8506831002F
:1043600001F0A3FA0278032A08D13100206A16F07E
:10437000F0FD31002000FEF77BFF70BD0022310010
:10438000206A16F0E6FD236A02005B6859684B421A
:104390004B41DBB2002904D01178012901D1002161
:1043A000117029002000FDF70DFFE2E7D9EA0310A4
:1043B000F0B589B0059104920400A42107AA05A8CC
:1043C0001E0013F047FF00231F0003900193029388
:1043D0000093019B039A934213D1002F04D0A36A48
:1043E00002995B6B606A9847049AA36A606A002A24
:1043F00000D17BE0C0331C6831003B00009AA0472D
:1044000015E0019A079B9200D558002D5FD0032339
:104410001D425CD1FF216B680B40A62B1ED1A43B33
:104420001F4206D0324A29002000FDF773FE09B072
:10443000F0BD019B1D2B01D92E4AF4E701273B005B
:10444000019A20009340029AA9681A430292FDF74C
:1044500045FFF619019B01330193BAE7A72B0DD154
:10446000A53B1F43A36A606A1B6C9847A96820009C
:10447000FDF734FF009B01330093EBE7A82B26D117
:10448000EA68002A0FD0A53B1A420CD153680B40B2
:10449000AA2B06D120009268A968FFF743FF0136D6
:1044A000D8E7AC2B0DD00F23A9680B40022B01D00D
:1044B000114AB8E7A36A09099B6B606A9847E968E3
:1044C000D5E7062229002000FDF7DCFFE7E70223FD
:1044D0001F4201D0094AA6E7009B002B01D0084AE1
:1044E000A1E729002000FDF7F9FED8E7BC3382E7F9
:1044F0001AEB031021EB031029EB031036EB03102A
:104500003DEB031070B50D00417804001300012944
:1045100003D12A00FDF7C8FC6861A36A606A9B6C3E
:10452000984700236E691A0031002000FDF723FC34
:10453000A36AB18A9B6B606A9847E968002909D031
:1045400003230A001A40194204D14B68DBB2A32BA3
:1045500000D11100200002230022FFF729FFB08ABA
:1045600070BD002310B51A008968FFF721FF10BD48
:10457000F7B50D0089680400FDF7B0FEEE68002E67
:104580002DD07368DAB28E2A2AD02E0001230C3681
:1045900000930F22216AAB68097800251A40072989
:1045A00000D078E0022A4ED11A099A2A00D074E08D
:1045B00032685368DBB2302B45D19368AB4242D1AD
:1045C00003312000FDF779FE0121226AD36A128DA2
:1045D000002A09D12000474A3168FDF79BFDF7BD4D
:1045E0001B0A00930836D4E75878084210D059685F
:1045F0002000FDF762FE009AA36A022A0BD8BC33A2
:104600001D68002302211A00606AA84701251AE0EC
:10461000013A0833DCE7FF2071684A680240322A19
:10462000EDD1B5686A680240302AE8D189685B6CD0
:10463000606A09092F3A9847A968002301222000DF
:10464000FFF7B6FE0325009BAB42C8D96B1C009850
:1046500001936A1CAB00F158824245D2FF204A68A0
:104660000240322A40D1F3185F687B680340302B48
:104670003AD18968A36A00225B6C606A090998478D
:10468000002301222000B968FFF792FE019D013549
:10469000D9E70025D7E7022AD5D1C42200251B0976
:1046A00052009342CFD13168893A4B681340302B86
:1046B000C9D18B68AB42C6D003211D000D400B420F
:1046C000E7D15B6813402F2BBDD1A36A2A00BC330E
:1046D00029001F68606A2B00B84733682A00200051
:1046E0009968FDF75BFF91E72000FDF7F7FD019565
:1046F000CCE7C04644EB0310036A10B51B780400F6
:10470000072B05D0022B03D0054AFDF703FD10BD92
:104710002000FFF72DFF2000FDF78BFBF7E7C046D9
:1047200057EB031010B5CA688968FFF7FBFD10BD91
:1047300010B5036A04001A8BFFF7E4FE01002000A5
:10474000FEF796FD10BD0000F0B50400080089B02A
:1047500005910830422106AA13F07CFD0027236A48
:1047600003901E8B0297039B9F420BD1059BD96838
:104770004B68DBB2032B52D132002000FDF7A0FCC6
:1047800005005AE0069BBA00D3586C21180007AA0E
:104790000830049313F05EFD079B050019680A09B1
:1047A000732A0FD02000FDF799FD01230193019B8F
:1047B000AB4227D3049BD96800291FD02000FDF706
:1047C0008DFD1BE0022805D02000294AFDF7A2FC40
:1047D00035000FE059680B09412B11D0254A93424F
:1047E00008D0CD320325934204D0F822FF320135A0
:1047F0009342E9D12E00029B013302930137B2E7C5
:104800000125F7E7019A079B9200D158A36A00227D
:104810001B6D606A09099847019B0133C6E7442B69
:1048200017D18F68320039002000FDF749FC0123C1
:104830000500BA69D18A0B43D3820026039B029AF2
:104840009B1AB3420AD829002000FEF711FD09B0D7
:10485000F0BD32002000FFF755FE91E7A36A012169
:10486000BC331F680023606A1A00B8470136E5E7C9
:1048700062EB0310FB0200000F23F0B58E6804000A
:104880000D0085B033400A2B0BD000218E4216D08C
:104890000323310019401E422ED17368DBB2652B11
:1048A0001CD102960026652103AA02A813F0D2FCAF
:1048B0000021039B80003F4AC018834214D13E4B25
:1048C000EA689A4236D1236A1F78002F16D0290051
:1048D00020003A4AFDF71EFC05B0F0BD622BEED178
:1048E000B3680293F668DEE71F68974202D1013190
:1048F0000433E2E70331FBE70021E0E7A36A606AE3
:104900005B6B9847A36A606A05219B6B9847A36A13
:104910003A00A0331B68606A0121984731002000EB
:1049200003AAFDF7D7FAA36A02223900DB6A606A9C
:104930009847D1E7A36A606A5B6B984728006A21B1
:104940000C3002AA13F086FC00270500A36A606AF7
:10495000AF4211D1A033002229001B6898473100D3
:10496000200003AAFDF7B6FA0026A36A606AAE42E9
:104970000BD1DB6D9847AFE7029AB9008A589B6B61
:104980009168013709099847E0E7029AB1008F580A
:10499000DB6ABA6812090192019901229847F96805
:1049A000002905D101992000FEF762FC0136DCE701
:1049B0000909F8E7CA0500001A0400007AEB0310A1
:1049C00037B504000D00836A00215B6B406A98478D
:1049D000A36A606A1B6B0F2198472900200001AA77
:1049E000FDF778FA20000199FEF742FC37BD000080
:1049F000F0B5A1B0069010201400079105F0ACFCB2
:104A0000D02212061268BB4B9200D35800211B69BA
:104A10005822436007000AA836F0FEFC0AAB1C705F
:104A2000012301215B4219A80F9305F0CDFC02215F
:104A3000079B0122DB00194319A805F0FFFC0123A5
:104A4000002143601CA80DF013FF8322AA4B9200A3
:104A50009B5C069A002112680AA8FDF725FA0190CE
:104A600017A800F0A5FEA54B119C149300230390FA
:104A700013900293002C02D00B9D002D1ED0119C90
:104A8000002C02D00B9B002B37D0002502990398F5
:104A900000F095FE119C0B9E002C00D134E1002EFD
:104AA00000D1DEE0129C0AA8E168FDF79DFA300013
:104AB000A38A0C9A07990CF0E9F928E1238B0122CB
:104AC00021000AA8042B08D1FEF798FA0D9B029A40
:104AD0009A4200D20293A468CCE7FFF7E9F8238D4D
:104AE0009D42F3D2E26AEB00D118D35C012B02D1D4
:104AF000200016F058FA0135F1E70421E28A0A4253
:104B000015D0218D01394A1C11D00225E26AC80056
:104B100012185078284225D0002B08D0596815006B
:104B20008C46186842CD42C363461060536000252E
:104B30002584238D04939D421ADB00230120049ACF
:104B40009A4244D16568002D0AD000222B8D09932A
:104B5000130009998A4249DB00220125934275DC42
:104B6000A4688DE7002BCDD10128CBD11300C9E774
:104B7000E66AEB00F6182378012B04D173680A2B40
:104B800010D10135D5E73278012B0BD9012A09D193
:104B900003233370238B032B13D01022E38A134398
:104BA000E38202E03378032BF4D03378042B03D074
:104BB000012273781342E4D0238C5A1C2284738020
:104BC000DFE7706809F01AFE0128EEDCE5E7E16A2C
:104BD000DA008D188A5C052A06D16A78024203D170
:104BE000228C6A80013222840133A8E7E86AD1006E
:104BF0004618415C08960539012918D8002111E0B2
:104C00000599E66AC8003118305C8C46062807D141
:104C100008994E6861464868864201D14B8001334D
:104C2000059901310591059804998142E8D1013235
:104C30008FE7E06AD1004618415C062902D17178FD
:104C4000294202D07188C9187180013204999142B9
:104C5000EFD1628B9BB29A186283228C9B182384BB
:104C60007EE7238B042B19D1159B002B03D10298CF
:104C700001F088FA159000231393214B03222100A1
:104C80000AA81693FEF7BAF90B9B002B04D1042255
:104C900021000AA8FEF7B2F9A468FCE6023B012B4A
:104CA00023D8002D06D1029B0DAA0BA917A803F04B
:104CB000C7FE0500134B13951493022221000AA886
:104CC000FEF7F6FF0B9B002BE6D1032221000AA87A
:104CD000FEF7EEFF0B9B002BDED1042221000AA879
:104CE000FEF7E6FF0028F8D0D6E7039B1393034BAB
:104CF0001493E2E7D41A0020681F0020A42C0410AB
:104D00007C2D04108C2E0410002E00D0CAE6019BCE
:104D10000B9E1B690293002E14D0039800F057FDE0
:104D2000002D3AD11598002801D001F040FA0698DC
:104D300013F084FC019B002B33D10B98002837D053
:104D400009F0ECFD199C1E9BE40864000334A008E4
:104D5000C018800005F000FB03239C430419FC608D
:104D60001B991A9CB860A6420AD100231E998B4257
:104D7000D3D01F989A008458F86801338450F6E71E
:104D80000A68002A06D0042A04D04B68D2085B10B7
:104D90005B001A5201360831E5E7280003F070FE87
:104DA000C0E7019B9C68180016F0BAF80194C1E7AF
:104DB0003900019A029800F0CDFD21B0F0BDC04647
:104DC000D02212061268044B9200D35882B01868A1
:104DD00001ABC01A02B07047D41A002010B5FFF71B
:104DE000EFFFD02212061268044B9200D3585B6882
:104DF000984201D315F02EFF10BDC046D41A0020F2
:104E00004379012B07D08368C918036981605A8CE4
:104E1000914200DD59847047002383714379012B4F
:104E200003D0C26A036A8900CA507047042110B5D2
:104E30004942FFF7E5FF10BD10B50421FFF7E0FF81
:104E400010BD032110B54942FFF7DAFF10BD426AD9
:104E5000030040795118032802D81800596270479E
:104E6000586B8018FAE782790300002A01D01800F5
:104E70007047C26A40798918032801D8D962F6E7D9
:104E8000986AD9621218586B8018F1E710B50C00B7
:104E90000121FFF7E8FF047010BD70B50400150094
:104EA000FFF7AEFF01212000FFF7DDFF057070BDA9
:104EB00010B553220121FFF7F0FF10BD10B55422A9
:104EC0000121FFF7EAFF10BD10B557220121FFF7BE
:104ED000E4FF10BD10B558220221FFF7DEFF10BD20
:104EE000012110B559224942FFF7D7FF10BD10B577
:104EF0005A220021FFF7D1FF10BD10B55B2200211F
:104F0000FFF7CBFF10BD012110B55D224942FFF72D
:104F1000C4FF10BD5E2210B5002901D0032101326B
:104F2000FFF7BBFF10BD10B53039CAB20021FFF743
:104F3000B4FF10BD022110B562224942FFF7ADFF58
:104F400010BD012110B5632249420400FFF7A5FFFF
:104F50000123A37110BD0A00643210B5D2B24942D8
:104F60000400FFF79AFF0123A37110BD0A0010B5DA
:104F700004006732D2B24942FFF78FFF0123226952
:104F8000D18A0B43D38210BD70B51D000400FFF71A
:104F900084FF2A0020000249FBF710FE70BDC046C6
:104FA000674E001070B50D0004001900C0681600AF
:104FB00000F04AFC3200030029002000FFF7E4FF64
:104FC00070BD10B50B0010220121FFF7EBFF10BDE3
:104FD00010B511320B000121D2B2FFF7E3FF10BD73
:104FE00010B514000B00012164001432D2B2091B69
:104FF000FFF7D8FF10BD0B00012110B51632D2B259
:105000004942FFF7CFFF10BD10B519320B00002148
:10501000D2B2FFF7C7FF10BDF8B5C4681D002678EF
:105020006388042E02D166689F00BD515D1C6580B7
:10503000FFF7AAFFF8BD110010B52833DAB20B0054
:105040000021FFF7A1FF10BD10B501240B002100C6
:10505000022A00D0E11A2A32D2B2FFF795FF10BD22
:1050600070B500242500032903D0042909D1013497
:105070002500A3189B002B43E1432F22FFF784FF59
:1050800070BD00240225F4E710B50B003022013971
:10509000FFF77AFF10BD10B513020B4389183122B8
:1050A000FFF772FF10BDF7B5060001931700FFF779
:1050B000A7FEB379002B20D172791C000125022AAA
:1050C00010D9019A316AF06A92005258023C241AAF
:1050D000A418442F12D82200403202DB3F2C00DCFF
:1050E0001D00641B3000A91CFFF7BDFE0770002DDA
:1050F00009D1442F00D840344470F7BD7F25A54224
:10510000AD416D42EDE7442F02D88023DB01E41866
:105110007379042B06D180231B029C4202D3012306
:105120003836337080235B422343E411437084702C
:10513000E3E710B50B00422200210400FFF7B3FFA4
:105140000123A37110BD0000F8B5174F05000C0036
:1051500016000F40002A19D124040ED55921FFF75B
:1051600095FE59212800FFF791FE59212800FFF7ED
:105170008DFE59212800FFF789FE3B0042220021C5
:105180002800FFF790FF0123AB71F8BD3B004022E0
:105190000021FFF788FF7F23210A9943314328002C
:1051A000C9B2FFF773FEEEE7FF7FFFFF10B51400F3
:1051B0000B0061424C414732D2B26100FFF773FFEE
:1051C00010BD10B50B004B220121FFF76CFF10BD85
:1051D00010B50B004A2200210400FFF764FF0123F1
:1051E000A37110BDF7B58222234B92009B58050096
:1051F0000191022B0DD88769B9420AD9C46A426964
:10520000CF1BA41A3B00234304D1EB6A6B61019BC3
:10521000AB61F7BD062F01D90F2C18D900941F2CB4
:1052200001D91F230093009B00269C4203D83E0017
:10523000032F00D9032601212800FFF708FE009A5A
:10524000730113430370009BBF1BE41ADAE780234A
:105250003E001B019F4200D3084E02212800FFF7A9
:10526000F6FD7022330913402343F03A13430370D1
:1052700046700094E7E7C046681F0020FF07000063
:1052800010B50400002905D1552201392000FFF78F
:1052900004FE10BD022904D1FFF70AFE2000FFF72B
:1052A0002CFE032156224942F0E7130010B5432299
:1052B000002900D1442201214942FFF7F4FE10BD2C
:1052C000130010B54522002900D146220121494290
:1052D000FFF7E9FE10BD70B50400322905D00025A6
:1052E000332904D10125072101E0012506212939AF
:1052F000CAB2012120004942FFF7CFFD002D04D0A2
:10530000D32200212000FFF7C8FD70BD0B0010B5AF
:10531000012A07D0022A0BD1012167324942FFF747
:10532000BCFD10BD11001B32D2B2FFF73BFEF8E707
:1053300001214942F7E770B50D000400111E05D1A7
:105340002B0013222000FFF72DFE70BD022A04D18E
:10535000FFF7AEFD2000FFF7CAFD02212B00182247
:105360004942EFE7110010B5002B07D10F2A05D8ED
:105370005039CAB20121FFF790FD10BD2433DAB2D3
:105380000B000121FFF700FEF7E7110010B5002B1D
:1053900008D10F2A06D84039CAB201214942FFF785
:1053A0007CFD10BD2633DAB20B0001214942FFF724
:1053B000EBFDF6E770B5049DD2B26C002D02E41847
:1053C0002B43059D002D02D00132D2B20134091BBE
:1053D000FFF7DAFD70BD07B5019300920B00342290
:1053E0000021FFF7E7FF07BD13B5012401930092E9
:1053F0000B0036226142FFF7DDFF13BD10B504003C
:10540000C06800F038FA2322030001212000FFF7D2
:10541000BBFD10BD0B001033F7B506000D003F2B90
:1054200005D8803D0121EAB2FFF737FDF7BD012124
:105430002222FFF732FD6B465C1D21007F202F00EA
:1054400022000740EBB2013CED1127706F1C012FC9
:10545000F5D840273B40013513D1002B02D1013C48
:105460002070941E3000091BFFF7FDFC8026010010
:10547000230001AD76421A78AB4208D11B1BC254FF
:10548000D4E7002BEED00023013C2370E9E7324340
:105490000A7001330131EEE770B5040018000B69A2
:1054A0000499D5B208430AD10121891A202220008B
:1054B000FFF7B2FD29002000FFF7E8FC70BDD143E3
:1054C0002122F4E710B51C000B69224304D101210D
:1054D0003232FFF7A1FD10BD012133224942F8E726
:1054E00010B504000D290AD10849C06800F0C3F9BD
:1054F0002322030001212000FFF746FD10BD4231A9
:10550000CAB20121FFF7C9FCF8E7C04628520410CF
:1055100070B504000D000F21FFF7E2FF2900200005
:10552000FFF77AFC5C2220000221FFF7B6FC042181
:1055300020004942FFF764FC70BDF8B504000F007D
:1055400016001D000F21FFF7CBFF2000FFF7CFFC57
:1055500039002000FFF7EDFD31002000FFF75CFC73
:105560002000FFF7B1FC012220002121FFF730FDD0
:1055700020000821FFF7AFFE2A0000212000FFF7DE
:1055800094FEF8BD70B543790400012B14D00025BA
:10559000C26B436A05649B1AC3632069038DAB42E7
:1055A0000CD86379032B1AD1606AE36AA062236383
:1055B000C01804F0F0FE6063012070BDC26AEB0009
:1055C000D118D35C052B08D18E7820000121FFF77C
:1055D0003EFC0670236C013323640135DDE7042BA8
:1055E000EAD1626AA16AE36A8A4202D1216B9942D6
:1055F00003D00020A2622363DFE7230038331B7847
:10560000002B03D00549064814F0F4FAE268C38A77
:105610005268616B006900F081F9CDE78CEB0310F3
:10562000DC450410F0B54171010000230261170050
:10563000012238318360837143618261C3624362B6
:105640000B703B8C798C06005B1887B0002B00D167
:1056500013000F22F88AB98C10400390BA8B7D8B0F
:105660000492FA8B7820059204228C001440013AAF
:105670002A40013B1443DA001B09024001934B0806
:1056800014430293AD08029A019B01211343039A2C
:1056900030001343049A2B431343059A134336D126
:1056A000FFF7D5FB04707379022B1AD9336CF56BB5
:1056B00001937E2301226C001C40019BAD09134025
:1056C0001C43019BD34001932B43029301D08023C1
:1056D0001C4301213000FFF7BAFB029B0470002B32
:1056E000E7D1736AF068F363B98A00F0ADF82F4D23
:1056F000020029003000FBF761FA00247B8BBA8B93
:105700009B18A3424FDD3B8D00229C4647E0FFF7EC
:105710009EFB80235B421C43039B04709C0140233F
:1057200030221C40019B1B0113401C430123059A9E
:10573000134008221C43049BDB0013401C43043A23
:10574000AB0013401C43029B023A5B0013401C4316
:10575000019B6D08D3400193029B5B080293039B5E
:105760005B080393049B5B080493059B5B0805930C
:1057700089E70120FB6AD1005B18597801420DD0FE
:105780005988A1420AD15968F06800F05DF82900F3
:1057900002003000FBF712FA0134AFE70132944502
:1057A000E7DC0521F0E707B0F0BDC0464F4E001022
:1057B00010B50400442004F0EEFDC46010BD10B527
:1057C0000400C161880004F0C7FD206210BD10B55F
:1057D0000400006A04F0F4FD200004F0F1FD10BDA7
:1057E000F8B504000D00884201D10120F8BD144B2A
:1057F000984201D10020F9E79942FBD009F0C4F8A2
:105800000600280009F0C0F88642F3D10D4B9E42F5
:1058100011D162686B689A42ECD108260027636850
:10582000BB42E2D9A959A059FFF7DAFF0436002894
:10583000E0D00137F3E72900200009F059FBD5E754
:10584000383F041098560410CB00022110B51943BC
:1058500004000122083004F0F1FD4368002B06D15A
:105860000122A368DB08013B5B00134343604068EF
:10587000401080B210BD70B505000E000024EB6929
:10588000A34208D82800310014300CF09DFEEC69CA
:10589000013C200070BD2A6AA30031009858FFF730
:1058A0009FFF0028F5D10134E9E710B5012204007B
:1058B00015F04FFB0378012B04D12378012B02D97B
:1058C0000423037010BD0223FBE770B505000E0032
:1058D000100019001C0015F02CFB03785A1E012A39
:1058E00005D80022736821002800984770BD032B5B
:1058F00002D101227368F6E736684288042B04D18E
:10590000002321002800B047F0E70123F9E710B594
:10591000102004F040FD0123837010BD10B5022457
:105920008470013C2340C3704160826010BD81706F
:10593000012110B502AB10CB42601B8884600B4084
:10594000C370049B0373059B1A02C368DBB2134345
:10595000C36010BDF8B504006378100022781B0204
:105960000D00134317D0002700230A0021000BF07D
:10597000E5FE0125390023785BB27E1C002B03DB9A
:10598000294225D01D4B19E0A35D9A112A40BA4047
:1059900037001143F0E7A3786668042B10D0052B7D
:1059A00017D0032B20D10A00A36831000BF0C6FEEC
:1059B000134B0360E378002B0AD0124B036007E01F
:1059C00010201149A46808F0D2FFC66045608460C9
:1059D000F8BD10200D49257BE46808F0C8FF240AB3
:1059E00045608660C460F3E70A00A36831000BF0ED
:1059F000A5FEE378002BEBD0C4E7C046AC4A041008
:105A000064490410904A04104C49041034490410AD
:105A100070B51D00802314005B001A401C4200D0AA
:105A20002A00FFF797FF0223E2091A409A40E1B2E9
:105A3000AA180AF07FF870BD0F2370B51340040058
:105A4000022B09D00D4B0A0019000D480BF0DEF9AE
:105A5000636A1860002070BD836A002012098342C7
:105A600005D1238C042BF5D106490548EEE7E16A00
:105A7000850069589142EED00130F0E797EB0310B2
:105A8000944504109DEB03107FB504000D00100039
:105A900003A91E0012F04AF9002809D12A000B4977
:105AA0000B480BF0B3F9636A1860002004B070BDB6
:105AB000039809F031F802000300B243F6D02A003F
:105AC0000449009602480BF0A1F9ECE7A9EB03109A
:105AD00094450410AFEB031070B5038CC46A032B1C
